:020000040800F2
:1000000000000220C9160008191700081917000877
:100010001917000819170008191700080000000038
:100020000000000000000000000000001917000898
:100030001917000800000000191700081917000818
:1000400019170008191700081917000819170008D0
:1000500019170008191700081917000819170008C0
:1000600019170008191700081917000819170008B0
:1000700019170008191700081917000819170008A0
:100080001917000819170008191700081917000890
:100090001917000819170008191700081917000880
:1000A0001917000819170008191700081917000870
:1000B0001917000819170008191700081917000860
:1000C0001917000819170008191700081917000850
:1000D0001917000865040008191700081917000807
:1000E0001917000819170008191700081917000830
:1000F0001917000819170008191700081917000820
:10010000191700081917000819170008191700080F
:1001100019170008191700081917000819170008FF
:1001200019170008191700081917000819170008EF
:1001300019170008191700081917000819170008DF
:1001400019170008191700081917000819170008CF
:100150001917000819170008C90400081917000822
:1001600019170008191700081917000819170008AF
:10017000191700081917000819170008191700089F
:08018000191700081917000807
:1001880010B5054C237833B9044B13B10448AFF3C9
:1001980000800123237010BD5804002000000000D7
:1001A8002C1A000808B5064B1BB106480649AFF3E0
:1001B80000800648036813B1054B03B1984708BD92
:1001C800000000002C1A00085C04002054040020E1
:1001D80000000000154B002B08BF134B9D46A3F5EC
:1001E800803A00218B460F461348144A121A01F030
:1001F800C9FA0F4B002B00D098470E4B002B00D0AC
:1002080098470020002104000D000D48002802D066
:100218000C4801F083FB01F08DFA2000290001F061
:100228002FFA01F077FA00BF000008000000000074
:10023800000000000000000058040020C80400204E
:100248002519000831190008354B3648196800226D
:1002580041F0010119609A60196821F0847121F454
:10026800803119605860196882B021F480211960C2
:10027800DA60009201921A6842F480321A601A46D3
:1002880003E0009BB3F5A06F09D0136803F40033B3
:100298000193009B01330093019B002BF1D0204B6D
:1002A8001B6813F4003318BF01230193019B012B32
:1002B80005D01D4B4FF000629A6002B07047184B92
:1002C8001A4A186C1A4940F080501864106840F4B3
:1002D800804010609A689A609A6842F400429A6076
:1002E8009A6842F4A0529A6059601A6842F0807283
:1002F8001A6019460B680A4A9B01FBD50D4B40F260
:1003080005611960936823F003039360936843F0D1
:1003180002039360936803F00C03082BFAD1C8E733
:10032800003802401030002400ED00E0007000406A
:1003380008544007003C0240154B9A6802F00C0232
:10034800042A23D0082A09D0124A1149124B896875
:10035800C1F30311595CCA401A617047586859685B
:100368005B6842024CBF0D4A0A4A01F03F01C3F3E1
:100378008813B2FBF1F202FB03F2054B5B68C3F38F
:10038800014301335B00B2FBF3F2DEE7034ADCE72B
:10039800003802400024F4000400002000127A0013
:1003A80010B43123084C02E013F1FF3308D3E25CA8
:1003B800054902F0FF00002AF6D00022C85CCA54A2
:1003C8005DF8044B704700BF74040020F0B50C467C
:1003D80091B01F4800F0F8F9227803944FF00060BC
:1003E800402102F0FF03019004913AB100232278E2
:1003F800627801339BB20134002AF8D104240593B2
:10040800032200230DEB0401124F114806934FF409
:1004180080664FF40035089309930A930E930F935F
:100428000D92029707960B950C9400F065FA0A480E
:100438008021012201F0C4F801220548102100F0B2
:1004480029FB0348012100F0A1FA11B0F0BD00BF5B
:10045800B8640240041001400010014038B50C4C4B
:1004680040F22551204601F0DDF878B1A588094908
:10047800EDB291F83130312200E01A46531E054C96
:10048800C85CC0B28854002BF7D1257038BD00BFB6
:10049800001001407404002010B4084991F831009C
:1004A8003122C0B200E01A46531ECC5CE4B28C5430
:1004B800002BF8D15DF8044B704700BF740400208E
:1004C80008B50648064900F005FB00B908BD034811
:1004D8000349BDE8084000F027BB00BFA060024008
:1004E8000080202030B5684A436C934289B00446A6
:1004F80000F0A980654A934200F0AA80644A9342BA
:1005080000F0B680634A934200F0B880236C624AD8
:10051800934200F09380614A934200F09F80604AC2
:10052800934200F0A0804FF48000012100F05EFCAF
:10053800626BA16B206C012303FA01F1934041EA3D
:1005480003050222002302A98DF80C208DF80D2046
:100558008DF80E308DF80F30029500F0C5FD636CF4
:10056800494A93425CD0A2F54C42934258D0484D38
:10057800AB4214BF082507252A46206CA18E00F03F
:1005880051FE2A46206C218F00F04CFEE36B606C14
:10059800049300250C2304A9ADF81A30ADF81450C3
:1005A800ADF81650ADF81850ADF81C5000F0B2FE7A
:1005B8000122606C40F2255101F00CF80121606CB9
:1005C80000F02EFF4FF4A06000F096F846220123B9
:1005D80001A88DF804208DF807308DF805508DF8A6
:1005E800065000F093F8636C274A93421AD0274AC2
:1005F80093421BD0264A93421CD0264A934204BFFA
:1006080047238DF804300023012201A88DF8053016
:100618008DF806308DF8072000F078F809B030BD65
:100628000725A9E725238DF80430ECE726238DF864
:100638000430E8E727238DF80430E4E70120014679
:1006480000F0D4FB6FE71020012100F0FFFB5DE70D
:100658004FF40030012100F0EDFB57E702200121A3
:1006680000F0C4FB5FE70420012100F0BFFB5AE75C
:100678004FF48020012100F0DDFB47E72020012115
:1006880000F0E4FB42E700BF0010014000440040D6
:1006980000480040001401400000024000040240ED
:1006A8000008024038B50A4B0A4C984204D00A4A5E
:1006B8000A4BA264236538BD094D606406220723EE
:1006C8002046E16325646263A363FFF70BFFEEE74F
:1006D8000010014074040020A9030008D503000895
:1006E800000402405C1A00080000002054040020A6
:1006F80058040020C804002040F0BF60024B40F4BA
:100708000030D860704700BF00ED00E0C378F0B457
:1007180063B90378194A5909203103F01F030120EE
:1007280000FA03F342F82130F0BC7047144B4778C5
:10073800DA68857803781149D243C2F30222C2F1FC
:1007480004040F26E4B207FA04F446FA02F2E4B20B
:100758002A40224303F1604303F561431201D2B2F8
:1007680083F800230378012003F01F025B0900FAD5
:1007780002F241F82320F0BC704700BF00E100E01E
:1007880000ED00E021F0604121F07F01014B0843BA
:100798009860704700ED00E0044B1A6919B922EA25
:1007A80000001861704710431861704700ED00E0C1
:1007B800044B1A6804280CBF42F0040222F0040219
:1007C8001A60704710E000E010B4374A046800234C
:1007D80024F0010421219042046003604360836097
:1007E800C360036141614DD0304B984235D0304BE6
:1007F800984239D02F4B98423DD02F4B984247D042
:100808002E4B984248D02E4B98421DD02D4B9842E3
:100818001ED02D4B984243D02C4B98421DD02C4BC8
:10082800984221D02B4B984225D02B4B98422FD061
:100838002A4B984230D02A4B984205D0294B9842EF
:1008480006D05DF8044B7047274A43F8942CF8E724
:100858004FF03D5243F8AC2CF3E74FF4746243F881
:10086800202C5DF8044B70474FF4741243F8382C71
:100878005DF8044B70474FF0746243F8502C5DF8F4
:10088800044B7047194B5DF8044B3D229A60704742
:10089800174A43F8642CD4E7164A43F87C2CD0E76F
:1008A8003D2243F8082CCCE7106002402860024043
:1008B8004060024058600240706002408860024018
:1008C800A0600240B8600240106402402864024000
:1008D80040640240586402407064024088640240E8
:1008E800A0640240B864024000003D20006002405D
:1008F8003D000020400F0020CA680B68D0F800C0F7
:100908002DE9F0074F698E69CD690C6AD1F83490EA
:10091800D1F8388042EA030A4AEA07073E434B6A9D
:100928004F6835432C4344EA03028B6A0D4ECC6A68
:100938000D691A4342EA090949EA08080CEA060659
:1009480048EA06060B6B896806604269234322F071
:1009580007021343436145608760C160BDE8F00743
:10096800704700BF3F801CF0002303604360836032
:10097800C360036143618361C3610362436283624D
:10098800C362036343638363704700BF036819B995
:1009980023F001030360704743F0010303607047CD
:1009A800036819B923F400430360704743F4004314
:1009B80003607047036819B923F020030360704788
:1009C80043F020030360704741607047406880B27D
:1009D800704700BF036822B923F400230360016154
:1009E800704743F40023036001617047036819B935
:1009F80023F480230360704743F480230360704727
:100A08000AB9C16070470161704700BF0068C0F350
:100A1800C0407047006800F001007047406900F06E
:100A2800380070470B4B0C4A10B40C4CA0428CBFDA
:100A3800104618468B004CBF436803685DF8044BAA
:100A480021F0F02121F0821119420CBF0020012071
:100A5800704700BF00600240006402400F6402401B
:100A680010B4094A094C0A4BA0428CBF10461846DC
:100A780011F0005F21F0F02121F0821114BFC16054
:100A880081605DF8044B7047006402400F640240C7
:100A9800006002400B060CD54369AAB143F08003FD
:100AA800802943610FD0036801F01E0119430160DA
:100AB8007047802907D0002AF5D1036801F01E018C
:100AC80023EA01010160704723F080038029436114
:100AD800F3D1704770B4114A114D124C21F0F02334
:100AE80023F0C316A84288BF224696B1046804F0D2
:100AF8001E0404EAD12489004CBF5268126823F00E
:100B0800821313EA020002D0201C18BF012070BC17
:100B18007047446904F08004EDE700BF00600240BC
:100B28000F6402400064024010B4094A094C0A4BA1
:100B3800A0428CBF1046184611F0005F21F0F0214A
:100B480021F0821114BFC16081605DF8044B7047C9
:100B5800006402400F640240006002400A4B0B48E8
:100B68001A68002142F001021A6099601A6822F09E
:100B7800847222F480321A6058601A6822F4802243
:100B88001A60D960704700BF003802401030002456
:100B9800024B00221A701870704700BF02380240DA
:100BA80082B000230B4A019313689B030CD4019B6A
:100BB80001330193019BB3F5A06FF5D1054B18687C
:100BC800C0F3404002B07047019B01330193019B81
:100BD800F4E700BF00380240034B1A6822F0F8021D
:100BE80042EAC0001860704700380240014B1860A4
:100BF800704700BF00004742064B002201281A70C8
:100C08001A7005D0042802D105221A70704770475F
:100C18001870704770380240014B1860704700BF69
:100C2800800E474230B4029C064D40EA04605B08DF
:100C38000143013B41EA821242EA03436B6030BC44
:100C4800704700BF00380240014B1860704700BF72
:100C5800600047420907034B41EA8010C3F884004B
:100C6800704700BF00380240014B1860704700BF52
:100C780068004742014B1860704700BF4C0047426C
:100C8800034B9A6822F0EC6211430843986070475E
:100C980000380240034B9A6822F078421143084317
:100CA8009860704700380240034B9A6822F00302AC
:100CB80010439860704700BF00380240024B9868A4
:100CC80000F00C00704700BF00380240034B9A68E0
:100CD80022F0F00210439860704700BF00380240CD
:100CE800034B9A6822F4E05210439860704700BFA3
:100CF80000380240034B9A6822F4604242EAC0007E
:100D080098607047003802401F4A936803F00C034C
:100D1800042B10B41BD0082B1CD01C4B03601A49A1
:100D28001B4A8C68C4F30314145DE34043608C6869
:100D3800C4F38224145D23FA04F4846089685DF89E
:100D4800044BC1F34231525CD340C3607047114B2E
:100D58000360E4E754685168526863024CBF0D4B66
:100D68000A4B01F03F01C2F38812B3FBF1F303FB16
:100D780002F3054A5268C2F3014201325200B3FB42
:100D8800F2F30360CBE700BF003802400024F40010
:100D98001800002000127A0000F44073B3F5407F79
:100DA80009D1084A916820F0704321F4F81123F41E
:100DB80040730B439360034B1A6FC0F30B0010434F
:100DC8001867704700380240014B1860704700BF31
:100DD8003C0E4742014B1860704700BF400E474227
:100DE800014B1860704700BF5C014742044B1A6B07
:100DF80019B922EA00001863704710431863704756
:100E080000380240044B5A6B19B922EA00005863B3
:100E1800704710435863704700380240044B9A6B80
:100E280019B922EA00009863704710439863704725
:100E380000380240044B1A6C19B922EA0000186401
:100E4800704710431864704700380240044B5A6CCE
:100E580019B922EA00005864704710435864704773
:100E680000380240044B1A6919B922EA00001861D7
:100E7800704710431861704700380240044B5A69A4
:100E880019B922EA00005861704710435861704749
:100E980000380240044B9A6919B922EA00009861A7
:100EA800704710439861704700380240044B1A6A33
:100EB80019B922EA00001862704710431862704797
:100EC80000380240044B5A6A19B922EA00005862F5
:100ED800704710435862704700380240044B1A6D3F
:100EE80019B922EA00001865704710431865704761
:100EF80000380240044B5A6D19B922EA00005865BF
:100F0800704710435865704700380240044B9A6D8B
:100F180019B922EA00009865704710439865704730
:100F280000380240044B1A6E19B922EA000018660C
:100F3800704710431866704700380240044B5A6ED9
:100F480019B922EA0000586670471043586670477E
:100F580000380240044B1A7819B922EA00001870C8
:100F680070471043187070470D3802404309012B31
:100F78000BD0022B094B0CBF1B6F5B6F00F01F00DF
:100F880023FA00F000F001007047044B1B6800F0E2
:100F98001F0023FA00F000F00100704700380240FB
:100FA800024B5A6F42F080725A677047003802400D
:100FB800034BDB6818420CBF00200120704700BFBC
:100FC80000380240014B1870704700BF0E380240CD
:100FD80008B53C4B984224D03B4B98422BD03B4B16
:100FE800984232D03A4B984239D03A4B984240D046
:100FF800394B984247D0394B98424ED0384B98429B
:1010080055D0384B984200D008BD4FF4807001216C
:10101800FFF728FF4FF480700021BDE80840FFF774
:1010280021BF01200146FFF71DFF01200021BDE877
:101038000840FFF717BF02200121FFF713FF022026
:101048000021BDE80840FFF70DBF04200121FFF78C
:1010580009FF04200021BDE80840FFF703BF08206E
:101068000121FFF7FFFE08200021BDE80840FFF737
:10107800F9BE10200121FFF7F5FE10200021BDE880
:101088000840FFF7EFBE20200121FFF7EBFE2020EC
:101098000021BDE80840FFF7E5BE40200121FFF729
:1010A800E1FE40200021BDE80840FFF7DBBE8020BC
:1010B8000121FFF7D7FE80200021BDE80840FFF797
:1010C800D1BE00BF000002400004024000080240F8
:1010D800000C0240001002400014024000180240B8
:1010E800001C02400020024000222DE9F0071346B0
:1010F8000E6801274FF0030804E00133102B02F1BA
:1011080002022CD007FA03F404EA0605A542F4D13A
:10111800D0F8009091F804C008FA02F4E44304EA15
:101128000909C0F80090D0F800900CFA02FA0CF106
:10113800FF3C4AEA0909BCF1010FC0F8009011D937
:10114800C56891F807C02C40C460C5680CFA02F461
:1011580001332C43102BC46002F10202D2D1BDE846
:10116800F0077047D0F808A091F8059091F806C0EC
:1011780004EA0A0AC0F808A0D0F808A009FA02F997
:1011880049EA0A09C0F80890D0F8049029EA050548
:10119800456045680CFA03FC1FFA8CFC4CEA05050F
:1011A8004560CDE700234FF6FF720260037143717B
:1011B8008371C371704700BF82B04FF480330193CD
:1011C800019B0B430193019BC361C161019BC361F7
:1011D800C3690193C369019302B070470369194257
:1011E8000CBF002001207047006980B2704700BF23
:1011F800436919420CBF002001207047406980B242
:10120800704700BF01837047418370470AB9418323
:1012180070470183704700BF416170474369594077
:1012280041617047CB0800EB830001F0070110B45F
:101238008900046A0F238B4024EA03030362036ACC
:101248005DF8044B8A4013430362704708B52B4B83
:10125800984219D02A4B984220D02A4B984229D03C
:10126800294B984232D0294B98423BD0284B984280
:1012780000D008BD20200121FFF724FE20200021F6
:10128800BDE80840FFF71EBE10200121FFF71AFE37
:1012980010200021BDE80840FFF714BE4FF40030CD
:1012A8000121FFF703FE4FF400300021BDE808409C
:1012B800FFF7FCBD4FF480200121FFF7F7FD4FF445
:1012C80080200021BDE80840FFF7F0BD4FF4002062
:1012D8000121FFF7EBFD4FF400200021BDE8084095
:1012E800FFF7E4BD4FF480100121FFF7DFFD4FF455
:1012F80080100021BDE80840FFF7D8BD001001406C
:101308000044004000480040004C004000500040AD
:1013180000140140F0B50D46018AEF882E89AB888C
:10132800AA8989B2044621F4405139436889218247
:10133800A189334389B2034321F4B05121F00C0150
:101348009BB20B43A381A38A9BB223F4407313433C
:1013580085B0A3826846FFF7D7FC1D4B9C4229D075
:1013680003F580639C4225D0029BA2892968A08945
:1013780012B2002A03EB8303B4BF4900890003EBD0
:101388008303B3FBF1F2134900B2A1FB02535B09DB
:101398006425002803FB15224FEA03130CDB120116
:1013A8003232A1FB0251C1F343110B439BB223819B
:1013B80005B0F0BD039BD8E7D2003232A1FB020191
:1013C800C1F342110B439BB2238105B0F0BD00BFAE
:1013D800001001401F85EB5100234FF416510C22D9
:1013E800016042818380C38003818381704700BF8D
:1013F80030B40A884D888C88038AC9882A432243D6
:101408000A439BB292B223F470631343038230BC45
:10141800704700BF0023038043808380C3807047E8
:10142800838929B923F400531B041B0C838170475B
:101438009BB243F400538381704700BF038B03F4CE
:101448007F430383038B9BB219430183704700BF1B
:10145800838919B9C3F30E03838170476FEA434345
:101468006FEA53439BB28381704700BF838A29B9CF
:1014780023F400631B041B0C838270479BB243F464
:1014880000638382704700BFC1F308018180704701
:101498008088C0F308007047038A23F00F031B04F9
:1014A8001B0C0382038A9BB219430182704700BF59
:1014B800838929B923F002031B041B0C838170471D
:1014C8009BB243F002038381704700BF838923F4F2
:1014D80000631B041B0C838183899BB219438181A0
:1014E800704700BF038A23F020031B041B0C0382F0
:1014F800038A9BB219430182704700BF038A29B946
:1015080023F480431B041B0C038270479BB243F4F3
:1015180080430382704700BF83899BB243F0010375
:1015280083817047838A29B923F008031B041B0CA5
:10153800838270479BB243F008038382704700BFE1
:10154800038BDBB20383038B9BB243EA0121018344
:10155800704700BF838A29B923F020031B041B0CA2
:10156800838270479BB243F020038382704700BF99
:10157800838A29B923F010031B041B0C838270474C
:101588009BB243F010038382704700BF838A23F025
:1015980004031B041B0C8382838A9BB21943818238
:1015A800704700BF838A29B923F002031B041B0C70
:1015B800838270479BB243F002038382704700BF67
:1015C800838A9BB21AB923EA0101818270471943C1
:1015D8008182704701F01F0310B4C1F34211012446
:1015E800A14204FA03F310D002290CBF10301430C2
:1015F80004682AB924EA030303605DF8044B7047C2
:10160800234303605DF8044B70470C30F0E700BFDC
:10161800038819420CBF002001207047C94389B2D2
:101628000180704710B4C1F34213012401F01F0276
:10163800A34204FA02F217D0022B0CBF038A838A52
:101648009BB21340028892B253B1090A012303FAEC
:1016580001F111420CBF002001205DF8044B7047D6
:1016680018465DF8044B704783899BB21340E9E73D
:10167800090A012303FA01F1C94389B201807047BD
:1016880030B50C4C0C4883B04FF41651FFF70AF8EC
:10169800236D0948094998472546A36C98478DF852
:1016A80007000028F9D02B6D03480DF10701984772
:1016B800F3E700BF7404002000100140081A000876
:1016C800002100F004B80D4B5B58435004310C481E
:1016D8000C4B42189A42FFF4F6AF0B4A00F003B8DD
:1016E800002342F8043B094B9A42FFF4F9AFFEF796
:1016F800ABFD00F01FF8FFF7C3FF70475C1A000846
:10170800000000205404002058040020C8040020D1
:10171800FFF7FEBF08B50021044600F087F8044B28
:101728001868C36B03B19847204600F089F900BFD9
:10173800281A000870B50F4E0F4D761BB61007D04B
:10174800043D0024013455F8043F9847A642F9D1D6
:101758000A4E0B4D761B00F067F9B61008D0043D11
:101768000024013455F8043F9847A642F9D170BDCA
:1017780070BD00BF501A0008501A0008581A000817
:10178800501A0008F0B4840743D0541E002A3ED0F3
:10179800CDB2034603E0621E002C38D0144603F88D
:1017A800015B9A07F7D1032C2AD9CDB245EA052562
:1017B8000F2C45EA054515D9A4F110073F0903F197
:1017C800100606EB07161A46156055609560D56039
:1017D8001032B242F8D104F00F040137032C03EBA6
:1017E80007130DD91E462246043A032A46F8045B1D
:1017F800FAD8221F22F003020432134404F003042F
:101808002CB1C9B21C4403F8011BA342FBD1F0BCA4
:10181800704714460346C6E7024B13B1024800F06E
:101828007DB8704700000000311900082DE9F04F1D
:10183800384B1B6885B003F5A472019302900F46DC
:101848000392019BD3F84881B8F1000F1CD0DDF852
:101858000CB04FF00109DA46D8F804305C1E11D4F8
:1018680008F188059E1C05EB830508EB860677B111
:10187800EB6FBB420BD0013C631CA5F10405A6F13C
:101888000406F4D1244A7ABB05B0BDE8F08FD8F835
:10189800042056F8043C013AA24216BF0022C8F8B8
:1018A800044046F8042C002BE5D0D8F88811D8F865
:1018B80004B009FA04F20A4210D0D8F88C110A428E
:1018C8000ED1029855F8041C9847D8F804305B45A7
:1018D800B7D1DAF800304345CDD0B2E79847F4E7FE
:1018E80055F8040C9847F0E7D8F804306BB9D8F8E5
:1018F800003063B14046CAF80030AFF30080DAF830
:101908000080B8F1000FA7D1BEE7D8F80030C24672
:101918009846F6E7281A0008000000000146002053
:101928000246034600F018B838B5094D094C641B47
:10193800A41018BF05EB840505D0013C55F8043DFB
:101948009847002CF9D1BDE8384000F073B800BFC3
:10195800581A00085C1A0008F0B5274C2668D6F813
:10196800484185B00746002C41D065681F2D1EDD13
:10197800224818B94FF0FF3005B0F0BD4FF4C870D9
:10198800039102920193AFF300800399029A019B9D
:1019980004460028EED0D6F8485125600020606043
:1019A8000546C6F84841C4F88801C4F88C013FB917
:1019B800AB1C00200135656044F8231005B0F0BD6C
:1019C80004EB85004FF0010CC0F88820D4F888613A
:1019D8000CFA05F21643022FC4F88861C0F80831E2
:1019E800E6D1D4F88C311A43C4F88C21E0E706F527
:1019F800A674C6F84841B8E7281A00080000000095
:101A0800496E697420436F6D706C65746521204858
:101A1800656C6C6F576F726C640D0A0043000000B0
:101A28002800002000000000F8B500BFF8BC08BC82
:101A38009E467047F8B500BFF8BC08BC9E46704784
:081A480094E7FF7F010000009C
:081A500021180008AD01000897
:041A580089010008F8
:101A5C000000000000000000000000000102030470
:101A6C0006070809007A030A0000000001020304BB
:101A7C0001020304060708090000000014030020FB
:101A8C007C030020E40300200000000000000000A4
:101A9C00000000000000000000000000000000003A
:101AAC00000000000000000000000000241A0008E4
:101ABC00000000000000000000000000000000001A
:101ACC00000000000000000000000000000000000A
:101ADC0000000000000000000000000000000000FA
:101AEC0000000000000000000000000000000000EA
:101AFC0000000000000000000000000000000000DA
:101B0C0000000000000000000000000000000000C9
:101B1C0000000000000000000000000000000000B9
:101B2C0001000000000000000E33CDAB34126DE656
:101B3C00ECDE05000B0000000000000000000000BF
:101B4C000000000000000000000000000000000089
:101B5C000000000000000000000000000000000079
:101B6C000000000000000000000000000000000069
:101B7C000000000000000000000000000000000059
:041EAC0028000020EA
:041EB000000000002E
:04000005080016C910
:00000001FF
